:02000000AB282B
:10000600710DF80DF90D7408F8027508031C750FCB
:10001600F902F00DF10D0F30FC00710DF80DF90D20
:100026007408701C1C28F8027508031C750FF90269
:100036002128F80775080318750FF907F00DF10D5B
:10004600FC0B102870182D287408F807750803187B
:08005600750FF9070000080016
:0E005E008312031354088A005308820008001E
:10006C002F208A110A128000840AD30A0319D40A99
:08007C00F003031D3628080003
:10008400831203137408003A031D51287508003ABB
:10009400031D5128FF30F0007F30F100AA2883129D
:1000A4000313FD01F901F801710870040319003408
:1000B40071087506FA00FA1BFD09FB01F51F672894
:1000C400F409F509F40A0319F50AF11F6E28F00979
:1000D400F109F00A0319F10A71087504FA00FA1B10
:1000E400832803207B189628FD1F0034F009F109AA
:1000F400F00A0319F10AF809F909F80A0319F90AC7
:100104000034F51F9228F11B8E287108F90070083D
:10011400F800F101F0017628F101F001F00A003451
:10012400F109F009FB0A7328F80A0319F90A74089B
:100134007802031D762875087902031D7628F901D3
:10014400F801F00A0319F10AF11F76280000FF34C0
:020154000800A1
:1001560034240730831603139F008801870101307A
:1001660086008312880186018614061783160515F4
:100176008312081488140815881583160516831229
:100186008701051E0B2B8601051ACA280B2BA40115
:1001960024080F3C031CEA29051AD2280B2B8614C7
:1001A600061124082002D500D601031CD6030A3006
:1001B600F4000030F5005508F0005608F100422022
:1001C6007008A1000A30F4000030F5005508F00070
:1001D6005608F10042207808F0007908F10070080E
:1001E600A30024085002D500D601031CD6030A300A
:1001F600F4000030F5005508F0005608F1004220E2
:100206007008A2000A30F4000030F5005508F0002E
:100216005608F10042207808F0007908F1007008CD
:10022600CF000C302402031C43290C305207F00087
:10023600F1010318F10A24087002D5000030031CEE
:10024600013E7102D6000A30F4000030F500550870
:10025600F0005608F10042207008A2000A30F400AF
:100266000030F5005508F0005608F10042207808E5
:10027600F0007908F1007008CF00861606134629AB
:10028600061286120617D101323051020318E829E8
:10029600081488102308453E8400001854290710C6
:1002A600552907142308313E840000185C2987105D
:1002B6005D2987142308273E840000186429071146
:1002C6006529071523083B3E840000186C29871111
:1002D6006D298715081588114F08453E84000018BA
:1002E60076290712772907164F08313E8400001831
:1002F6007E2987127F2987164F08273E840000181B
:1003060086290713872907174F083B3E84000018E4
:100316008E2987138F2987172730FC00F530FD00BB
:10032600FD0B9329FC0B9329081088142108453EE0
:1003360084000018A0290710A12907142108313EBE
:1003460084000018A8298710A92987142108273EA8
:1003560084000018B0290711B129071521083B3E72
:1003660084000018B8298711B9298715081188153E
:100376002208453E84000018C2290712C329071621
:100386002208313E84000018CA298712CB29871615
:100396002208273E84000018D2290713D3290717FD
:1003A60022083B3E84000018DA298713DB298717C9
:1003B6002730FC00F530FD00FD0BDF29FC0BDF29A3
:1003C600051AE6290B2BD10A4729A40ACB28A40132
:1003D6002408173C031C0A2B051AF2290B2B86103E
:1003E6000616861224082602D500D601031CD6035B
:1003F6000A30F4000030F5005508F0005608F10008
:1004060042207008A1000A30F4000030F5005508BB
:10041600F0005608F10042207808F0007908F10053
:100426007008A30024082502D500D601031CD603B4
:100436000A30F4000030F5005508F0005608F100C7
:1004460042207008A2000A30F4000030F50055087A
:10045600F0005608F10042207808F0007908F10013
:100466007008CF0014302402031C642A143052078B
:10047600F000F1010318F10A24087002D5000030DB
:10048600031C013E7102D6000A30F4000030F5006C
:100496005508F0005608F10042207008A1000A3005
:1004A600F4000030F5005508F0005608F10042202F
:1004B6007808F0007908F1007008A3000615861187
:1004C600662A06118615D101323051020318052B12
:1004D600081488102308453E84000018742A071063
:1004E600752A07142308313E840000187C2A8710D9
:1004F6007D2A87142308273E84000018842A0711C2
:10050600852A071523083B3E840000188C2A87118C
:100516008D2A8715081588114F08453E8400001856
:10052600962A0712972A07164F08313E84000018AC
:100536009E2A87129F2A87164F08273E8400001896
:10054600A62A0713A72A07174F083B3E8400001860
:10055600AE2A8713AF2A87172730FC00F530FD0037
:10056600FD0BB32AFC0BB32A081088142108453E5C
:1005760084000018C02A0710C12A07142108313E3A
:1005860084000018C82A8710C92A87142108273E24
:1005960084000018D02A0711D12A071521083B3EEE
:1005A60084000018D82A8711D92A871508118815BA
:1005B6002208453E84000018E22A0712E32A07169D
:1005C6002208313E84000018EA2A8712EB2A871691
:1005D6002208273E84000018F22A0713F32A071779
:1005E60022083B3E84000018FA2A8713FB2A871745
:1005F6002730FC00F530FD00FD0BFF2AFC0BFF2A1F
:10060600D10A672A051A082B0B2BA40AEB29C42842
:10061600051E0E2BC6288801051D122B0F2B8610D2
:10062600061386150330A4002408003C03187E2B0D
:10063600081588158616A2012408CF00D10132308C
:10064600510203187C2B081588114F08453E84007B
:1006560000182F2B0712302B07164F08313E840047
:100666000018372B8712382B87164F08273E840031
:1006760000183F2B0713402B07174F083B3E8400FB
:100686000018472B8713482B87172730FC00F530B7
:10069600FD00FD0B4C2BFC0B4C2B0811881522087A
:1006A600453E84000018592B07125A2B07162208BC
:1006B600313E84000018612B8712622B87162208B0
:1006C600273E84000018692B07136A2B0717220898
:1006D6003B3E84000018712B8713722B8717273037
:1006E600FC00F530FD00FD0B762BFC0B762BD10ABA
:1006F600222BA403172B0811051E822BC62888114E
:10070600861206160515051D892B852B051E8C2BB5
:10071600C6280612861106170330A4002408003CDA
:100726000318F82B081488140615A1012408A30041
:10073600D101323051020318F62B08148810230811
:10074600453E84000018A92B0710AA2B071423087E
:10075600313E84000018B12B8710B22B8714230872
:10076600273E84000018B92B0711BA2B071523085A
:100776003B3E84000018C12B8711C22B87152730FA
:10078600FC00F530FD00FD0BC62BFC0BC62B08103C
:1007960088142108453E84000018D32B0710D42B5B
:1007A60007142108313E84000018DB2B8710DC2B50
:1007B60087142108273E84000018E32B0711E42B39
:1007C600071521083B3E84000018EB2B8711EC2B04
:1007D60087152730FC00F530FD00FD0BF02BFC0BD8
:1007E600F02BD10A9C2BA403912B06118614C42846
:0207F600FB2BDB
:1008680020308400333083120313F0000130D300AA
:080878000430D4003620080012
:020802000F34B1
:020804000034BE
:020806000034BC
:020808000034BA
:02080A000034B8
:02080C0017349F
:02080E001434A0
:100810000034003400340034013401340134013434
:04082000003400346C
:100824000034003401340134003400340134013420
:040834000034003458
:100838000034003400340034003400340034003410
:040848000134013442
:10084C0000340134003401340034013400340134F8
:04085C00003401342F
:02086000003462
:020862000C3454
:0208640032342C
:02086600033459
:02400E004A2F37
:00000001FF
